:060000000A128A110C280F
:10000800FE00030EF0000A08F1000A128A112329E3
:100018000A128A110F2883120313A801A901830168
:100028000A128A111728831603130F088F396038AC
:100038008F000F14811281110108F83901388100ED
:1000480006308312031381000B118B168B1783164E
:10005800031788018901831603138601831203138A
:100068008601403083160313870083120313860129
:10007800A701A001831603138601831203138601C7
:100088004030831603138700860183120313860109
:10009800403083160313870083120313A301A401BE
:1000A800A601A101A2010130A5000430A700071F85
:1000B8005E285F286A282608031D632864286A28A2
:1000C8000130A6002908A4002808A300071B6D28F2
:1000D8006E28DE282603031D72287328DE282308CD
:1000E8002802F6002408031C240A2902F70000301D
:1000F8007702153003197602031C83288428DE282A
:1001080023082802F6002408031C240A2902F70001
:1001180001307702F43003197602031894289528E1
:10012800C4282508031D99289A289F280130A5006E
:100138000430A700DB280130A7070A128A113921E9
:100148000A128A11AF280615BF288615BF28061679
:10015800BF288616BF28831203132708003A0319FD
:10016800A728013A0319A928033A0319AB28013A29
:100178000319AD28BF282908A2002808A100DB28F8
:1001880023082802F6002408031C240A2902F70081
:1001980003307702E93003197602031CD428D528E6
:1001A800DB28A5010A128A1139210A128A11831241
:1001B8000313A6012503031DE228E3285B28210871
:1001C8002802F6002208031C220A2902F70003303D
:1001D8007702E93003197602031CF328F4285B2818
:1001E8000A128A1139210A128A1101308312031363
:1001F800A70704302702031C022903290D29A70198
:100208000D2906151B2986151B2906161B29861676
:100218001B292708003A03190529013A0319072958
:10022800033A03190929013A03190B291B2929083B
:10023800A2002808A1005B280A128A110C280B1DAD
:100248002629272932290B1106308312031381002E
:100258000130A8070318A90A0030A90771088A0005
:10026800700E8300FE0E7E0E0900831203138601B2
:0202780008007C
:02400E00F42399
:00000001FF
