:060000000A128A11FC2F18
:100F7600831603130F088F3960388F000F148316FA
:100F8600031709120630F6001330F500AD30F400F1
:100F9600F40BCB2FF50BCB2FF60BCB2FD22F8316C3
:100FA6000313061083120313061083120313061489
:100FB6000630F6001330F500AD30F400F40BE12FE7
:100FC600F50BE12FF60BE12FE82F83120313061022
:100FD6000630F6001330F500AD30F400F40BF12FB7
:100FE600F50BF12FF60BF12FF82FD82F0A128A11D5
:0A0FF600002883010A128A11BB2FA4
:02400E00F42399
:00000001FF
